:020000040800F2
:10000000400500209D010008FD230008E11D0008B7
:10001000F923000825090008C9290008000000008C
:100020000000000000000000000000003124000873
:10003000B9090008000000002D240008652400080C
:10004000B7010008B7010008B7010008B7010008B0
:10005000B7010008B7010008B7010008B7010008A0
:10006000B7010008B7010008B7010008B701000890
:10007000B7010008B7010008B7010008B701000880
:10008000B7010008B7010008B7010008B701000870
:10009000B7010008B7010008B7010008B701000860
:1000A000B7010008B7010008B7010008B701000850
:1000B000B7010008B7010008B7010008B701000840
:1000C000B7010008B7010008B7010008B701000830
:1000D000B7010008B7010008B7010008B701000820
:1000E000B7010008B7010008B7010008B701000810
:1000F000B7010008B7010008B7010008B701000800
:10010000B7010008B7010008B7010008B7010008EF
:10011000B7010008B7010008B7010008B7010008DF
:10012000B7010008B7010008B7010008B7010008CF
:10013000B7010008B7010008B7010008B7010008BF
:10014000B7010008B7010008B7010008B7010008AF
:10015000B7010008B7010008B7010008B70100089F
:10016000B7010008B7010008B7010008B70100088F
:10017000B7010008B7010008B7010008000000003F
:10018000B7010008B7010008DFF80CD000F088FBC9
:1001900000480047292D00084005002006488047F8
:1001A00006480047FEE7FEE7FEE7FEE7FEE7FEE75C
:1001B000FEE7FEE7FEE7FEE71D25000889010008CF
:1001C0002DE9F05F0546002092469B46884606468C
:1001D000814640241BE0284641464746224600F01F
:1001E00036FA53465A46C01A914110D31146184662
:1001F000224600F01DFA2D1A67EB01084F462246F1
:100200000120002100F014FA17EB00094E41201ED6
:10021000A4F10104DFDC484631462A464346BDE8E6
:10022000F09FD2B201E000F8012B491EFBD27047CB
:100230000022F6E710B513460A4604461946FFF7B2
:10024000F0FF204610BD2DE9FE4F804681EA0300F5
:10025000C00F0C46009021F0004123F00045B8EBA0
:100260000200A94105D24046214690461C460B4655
:10027000024623F00040104347D0270DC7F30A0081
:10028000C3F30A510290401A019040286BDAC3F37D
:10029000130040F4801B0098924620B10023D2EB5B
:1002A000030A63EB0B0B01985946C0F1400250461C
:1002B00000F0BEF906460D4650465946019A00F038
:1002C000D6F910EB08006141002487EA115284EA54
:1002D000E7731A4340D0009A62B3019A012A4FEAA9
:1002E000075215DC001B61EB02014FF0004202EAED
:1002F0000752CDE90042001C41F5801132462B46E1
:1003000000F00DFA03B0BDE8F08F40462146F9E752
:10031000001B61EB0201001C41F5801300185B41DA
:100320002018A2F5001747EB030140EAD570B61973
:100330006D4111E06D084FEA360645EAC0754FEA97
:100340000752001B61EB0201001C41F580114908B6
:100350004FEA30000019514132462B4603B0BDE848
:10036000F04F00F0CDB90098012240000023D0EBFF
:10037000020263EBE073009821464FEAE074B8EBA9
:10038000000061EB0401E9E783F000435BE781F0E3
:10039000004158E72DE9FE4F81EA030404F00044D0
:1003A00021F0004100944FF0000B23F0004350EA8D
:1003B00001045ED052EA03045BD0C3F30A54C1F3D4
:1003C0000A552C44A4F2F3340194A0FB0254C1F367
:1003D000130141F48011C3F3130343F4801301FBB1
:1003E000024400FB034E840A970A44EA815447EA18
:1003F0008357A4FB076802958D0A05FB07854FEA22
:10040000932C04FB0C542705029D4FEA065847EA3B
:100410001637B5EB08056EEB070C870E920E47EA10
:10042000811742EA8312A7FB0201B6EB0B0164EBD2
:1004300000042B0D43EA0C335E1844EB1C50DA46E3
:100440005146E7FB0201C5F313044FEA0B3343EABD
:1004500014534FEA0432019C43EA0603A4F10C044E
:100460000294009CCDE900B400F059F903B0BDE856
:10047000F08F00200146F9E72DE9F04D81EA0304F1
:1004800004F0004B21F0004514464FF0000A23F021
:10049000004150EA050220D054EA01021DD0C5F304
:1004A0000A570246C5F31303C1F31300C1F30A56FA
:1004B00040F4801543F48013A7EB0608101BD646C2
:1004C00008F2FD3873EB050002D308F1010801E0E2
:1004D00092185B41B8F1000F03DA00200146BDE835
:1004E000F08D00204FF48011064684460EE0171B65
:1004F00073EB050705D3121B63EB050306434CEAB8
:10050000010C49084FEA300092185B4150EA01079C
:10051000EDD152EA030012D082EA040083EA050119
:10052000084305D0101BAB4106D20122002306E090
:1005300000224FF0004302E06FF0010253101AEB6B
:1005400006004CEB085110EB0A0041EB0B01BDE833
:10055000F04D00F0D5B830B5041E71F1000404DB95
:100560004FF00044404264EB0101141E73F100049B
:1005700005DB1C464FF00043524263EB0403801A34
:10058000994101D3012030BD002030BD0EB540F2AD
:10059000334102910021CDE900110A460B4600F0DB
:1005A000BEF803B000BD00F0004230F000400AD0B9
:1005B000C10D01F56071C0F3160042EA0151C20895
:1005C00040071143704700200146704701F0004387
:1005D00030B421F0004150EA010206D00A0DA2F524
:1005E0006072C1F31301002A02DC30BC00207047A6
:1005F000440F44EAC104C100E01830BC00EBC25013
:1006000000F047B830B50B460146002020220124F7
:1006100009E021FA02F59D4205D303FA02F5491BD0
:1006200004FA02F52844151EA2F10102F1DC30BDE6
:10063000202A04DB203A00FA02F1002070479140A2
:10064000C2F1200320FA03F3194390407047202A97
:1006500004DB203A21FA02F00021704721FA02F36C
:10066000D040C2F120029140084319467047202A29
:1006700006DBCB17203A41FA02F043EAE07306E0CA
:1006800041FA02F3D040C2F12002914008431946DA
:1006900070470029A8BF7047401C490008BF20F0E0
:1006A0000100704710B4B0FA80FC00FA0CF050EA78
:1006B000010404BF10BC704749B1CCF1200421FAF9
:1006C00004F411FA0CF118BF012121430843A3EBF4
:1006D0000C01CB1D4FEA00614FEA102042BF002001
:1006E00010BC704700EBC35010440029A4BF10BCDD
:1006F0007047401C490008BF20F0010010BC704743
:1007000010B5141E73F1000408DA401C41F1000119
:1007100092185B411A4301D120F0010010BD2DE970
:10072000F04D92469B4611B1B1FA81F202E0B0FA67
:1007300080F220329046FFF77BFF04460F4640EAE6
:100740000A0041EA0B0153465A46084313D01146AA
:1007500053EA010019D0C8F140025046FFF777FF75
:1007600005460E46504659464246FFF761FF08438C
:1007700005D0012004E020463946BDE8F08D002078
:10078000054346EAE0762C4337430A986305E40ABA
:10079000A0EB08000022FD0A44EA47540A3002D5C3
:1007A00000200146E9E7010510196941DDE9084526
:1007B00000196941BDE8F04DA2E72DE9FE4FC3F3F2
:1007C0000A5701F000450024C1F30A56C3F313038E
:1007D000C1F3130143F4801312EB020AA64641F45D
:1007E0008011009543EB030CA7F1010B16E0B0EB71
:1007F0000A0061EB0C01071E71F1000707DA4FF0E8
:100800000008D0EB080085F0004568EB0101171ADD
:1008100073EB0107EBD3761E001849415E45F6DA0B
:1008200050EA010209D0CDE900E500221346029604
:10083000FFF775FF03B0BDE8F08F20460099F9E798
:10084000C1F30A52C1F3130140F2FF3341F48011A6
:100850009A4202DA00200146704740F233439A423E
:10086000A2F2334202DC5242FFF7F1BEFFF7E0BED4
:1008700030B5041E71F1000404DB4FF00044404227
:1008800064EB0101141E73F1000405DB1C464FF0FC
:100890000043524263EB0403994208BF904230BDCB
:1008A000064C074D06E0E06840F0010394E80700BD
:1008B00098471034AC42F6D3FFF76AFC00460008B4
:1008C000204600080EB5C10F80EAE0700844CA0750
:1008D000002140F233438DE80E000A460B46FFF735
:1008E0001EFF03B000BD70B5C1F30A5201F0004510
:1008F0000024C1F3130140F2FF3341F480119A4206
:1009000001DA002070BD40F233439A42A2F2334232
:1009100003DC5242FFF79BFE00E090402C43F1D0F5
:10092000404270BDFEE7000040F23410C2F2000009
:1009300080ED000A7047000010B52DED028B40F2EB
:100940000C02C2F200029FED158A106040F208000E
:10095000C2F20000B0EE080AF0EE480A016002F0B0
:10096000BBFA40F6B83000F02FF802F059F840F228
:100970003814C2F2000484ED000A9FED090AF0EE7B
:10098000480A02F0A9FA2068FFF70DFE024605A00A
:100990000B4602F07BFBBDEC028B10BDE4CB964016
:1009A0000000000030E794B5E8A792E5BAA6EFBCD6
:1009B0009A252E32660D0A0070470000EFF3108072
:1009C00072B600BFFEE70000B0B5044600F0DCF8E8
:1009D000054640F21400C2F200000078611C18BF06
:1009E000044400BF00F0D0F8401BA042FAD3B0BDD1
:1009F0002DE9F04F83B000F13E4202F1FF724FEA61
:100A0000B22241F600470192C4F2020708224FF0D9
:100A1000010E00254FF0000A4FF00008B84208BF51
:100A2000072200920AE000BF08F101080AF1040A57
:100A3000B8F1100F05F1020500F0A2800C680EFA63
:100A400008FB14EA0B09EFD04C6804F0030CACF17E
:100A5000010EBEF1010F11D80322876802FA05F6D4
:100A6000CA68B743AA403A4382604268C4F3001799
:100A700022EA0B0207FA08F73A434260BCF1030F7F
:100A80001CD0C26803238E6803FA05F7BA4306FA3E
:100A900005F73A43BCF1020FC2600FD16FF00302B9
:100AA00002EA580202440AF01C060F23176A03FAEE
:100AB00006F40B69A743B3403B4313620268032368
:100AC0004F68AB409A4307F00303AB401A4317F457
:100AD000403F4FF0010E0260A6D0002243F64403CF
:100AE0000292C4F202031A6843F6004442F48042C0
:100AF0001A601A68C4F2010402F480420292029A57
:100B000028F003024FF6084B2244CFF6FF7B52F841
:100B10000B300AF00C070F26BE4023EA060C019B9F
:100B2000009E072B38BF1E4606FA07F747EA0C035C
:100B300042F80B3022684B6842EA0907DE0358BFCF
:100B400022EA0907276062689E0342EA090758BF44
:100B500022EA09076760A268DE0242EA090758BF75
:100B600022EA0907A76043F60C47C4F201073A6876
:100B70009B0242EA090358BF22EA09033B6053E79C
:100B800003B0BDE8F08F000040F23010C2F2000068
:100B900000687047F0B581B0B0B3044690F83D00EE
:100BA00028B9002084F83C00204600F05FFA242099
:100BB00084F83D002068016821F0010101600168AE
:100BC00041F400410160016821F40041016000F03E
:100BD000BFFB48F28041C0F21E0140F6001265687A
:100BE00088424FF00001C0F23D0248F2A16C4FF084
:100BF000000338BF01219042C0F2010C38BF01232D
:100C0000654538BF0B4613B1012001B0F0BD4DF66C
:100C10008361C4F21B31A0FB011221684FEA924E9E
:100C20004B684FF4967623F03F0343EA92434B60C0
:100C300044F6D3530F6A0EFB06F6C1F26203A6FB1D
:100C4000033627F03F03B709654538BF970C7A1C78
:100C50001A430A62CA6948F2A0674CF6FF73C0F2F1
:100C60000107BD4222EA030C0AD801386A00B0FB32
:100C7000F2F001306FF31F30042898BF04202BE0FE
:100C8000A368A0F1010E9BB119206843BEFBF0F0F0
:100C90000422013062F31F30000512D09BB11920ED
:100CA0006843BEFBF0F00422013062F31F3011E014
:100CB00005EB4500BEFBF0F001306FF31F3000057F
:100CC000ECD1012008E005EB4500BEFBF0F001305F
:100CD0006FF31F3040F4004040EA0C00C861086820
:100CE000D4E9072320F0C000104318430860886847
:100CF00048F2FF3204F10C0790438CCF18431043A5
:100D0000A6698860C86820F0FF0038433043C86097
:100D1000086840F00100086000202021206484F869
:100D20003D10206384F83E0001B0F0BD2DE9F04392
:100D300083B01E4615460F460446FFF725FF94F87C
:100D40003D1020290FD102218146C0F2100120461A
:100D500001221923CDF8009001F064F918B994F834
:100D60003C00012803D1022003B0BDE8F08301213B
:100D7000206884F83C100168DDF82880C90703D199
:100D8000016841F0010101600168424621F40061FF
:100D90000160222084F83D00102084F83E000020ED
:100DA000206465626685608D394620850020CFF617
:100DB000FF70E06220464B4601F02CF818B101208C
:100DC00003B0BDE8F083208D022806D001280DD0A5
:100DD000E8B90020029020680FE02068016821F443
:100DE00080610160016841F4006114E020680168DD
:100DF00021F48061016000210291416902918169C1
:100E000002910299016841F4007101600BE02068D1
:100E1000016841F480610160002102914169029101
:100E2000806902900298208D002877D00427C0F2B4
:100E3000010716E0204641464A4601F073F90028B2
:100E4000BDD12068616A00690870606A218D013037
:100E50006062481E2085608D01386085208D0028E5
:100E60005CD003283ED802281CD00128E2D02046BE
:100E7000394600224346CDF8009001F0D3F800280F
:100E80009DD12068616A026822F480620260006974
:100E90000870606A218D01306062481E2085608D77
:100EA000013860852046394600224346CDF800903F
:100EB00001F0B8F800287FF482AF2068616A026808
:100EC00042F40072026000690870606A2268411C86
:100ED0006162218D01392185618D01396185116939
:100EE0004170B2E7204641464A4601F01BF900280E
:100EF0007FF465AF2068616A00690870606A228DBE
:100F00000130013A606222852168628D013A628572
:100F10004A695207A2D50969017096E7202084F832
:100F20003D00002084F83E0084F83C0003B0BDE89A
:100F3000F08300002DE9F04782B01E46174689462F
:100F40000446FFF721FE94F83D1020290ED102211E
:100F50000546C0F21001204601221923009501F038
:100F600061F818B994F83C00012803D1022002B0BE
:100F7000BDE8F0870121206884F83C100168DDF8A5
:100F80002880C90703D1016841F0010101600168AF
:100F90004FF0000A21F400610160212084F83D0037
:100FA000102084F83E00C4F840A067626685608D1A
:100FB000494620850020CFF6FF70E0622046424679
:100FC0002B4600F0A7FF18B1012002B0BDE8F08762
:100FD000CDF804A0206841690191806901900198D1
:100FE00006E000BF204641462A4600F0EBFF20BB4A
:100FF000208D58B3204641462A4601F0C3F8E0B997
:10100000606A2168024612F8013B0B616262628DE0
:10101000013A6285228D571E27854B693F0418BF10
:1010200013F00403DED0437802300B616062608D00
:1010300001386085901E2085D4E7206C0428C3D138
:101040002068016841F400710160BDE72068016813
:1010500041F400710160202084F83D00002084F8F4
:101060003E0084F83C0002B0BDE8F087B0B586B021
:1010700045F200410068C4F2000100248842059452
:10108000CDE903440294019401D006B0B0BD43F60B
:1010900030050094C4F20205286840F00200286080
:1010A000286800F0020000900098C02001901220F3
:1010B000CDE90204032004900420059001F5D83006
:1010C00001A9FFF795FC0094286940F400102861FD
:1010D000286900F400100090009806B0B0BD000030
:1010E00040F2140040F23011C2F20000C2F20001DE
:1010F00000780A68104408607047000080B543F625
:101100000040C4F20200016841F40071016001680E
:1011100041F480610160016841F480710160032045
:1011200000F05CF80F2000F005F800F02BF800202C
:1011300080BD0000B0B540F21402C2F2000240F2DD
:1011400010011278C2F200014FF47A730968B3FB00
:10115000F2F20446B1FBF2F1084600F0F7FA0F2C68
:101160004FF001050CD858B94FF0FF30214600224E
:10117000002500F023F840F21800C2F200000460DD
:101180002846B0BD82B0002043F640010190C4F271
:1011900002014A6842F480424A604A6802F480428E
:1011A0000192019A0090086840F080500860086839
:1011B00000F080500090009802B0704770B514465F
:1011C0000D46064601F002FC2946224601F018F9B8
:1011D0000146304601F002FC70BD000080B501F010
:1011E0000FFC80BD2DE9F041002800F08B8043F614
:1011F0000808C4F202080446D8F8F8030D4600F0C7
:101200000700884207D288F8F853D8F8F80300F0AE
:101210000700A84276D12068810717D5410705D578
:10122000D8F8001041F4E051C8F80010010705D5C6
:10123000D8F8001041F46041C8F80010D8F8001048
:10124000A26821F0F0011143C8F80010C0073FD197
:10125000D8F8F80300F00700A84207D988F8F85337
:10126000D8F8F80300F00700A8424BD120684107E6
:1012700007D5D8F80010E26821F4E0511143C8F80E
:101280000010000708D5D8F80000216920F460405C
:1012900040EAC100C8F8000000F07EF8D8F800105D
:1012A00044F2E852C1F30311C0F60002515C40F26F
:1012B000100220FA01F140F21800C2F200000068AA
:1012C000C2F200021160FFF735FF0020BDE8F08197
:1012D0006068811E022907D258F8081C89015CBF8A
:1012E0000120BDE8F08110E0012807D158F8081C62
:1012F00089035CBF0120BDE8F08106E058F8081CB6
:10130000890702D40120BDE8F081D8F8001021F04F
:1013100003010843C8F80000FFF736FC064641F217
:10132000883700BFD8F80000616800F00C00B0EB0F
:10133000810F8DD0FFF728FC801BB842F2D9032023
:10134000BDE8F08140F21000C2F200000068704772
:1013500080B5FFF7F7FF43F60801C4F20201096800
:1013600044F2F852C1F38221C0F60002515CC84039
:1013700080BD000080B5FFF7E5FF43F60801C4F229
:101380000201096844F2F852C1F34231C0F600028A
:10139000515CC84080BD000010B543F60404C4F29F
:1013A0000204606800F00C0142F200400829C0F21B
:1013B000F40007D0042918BF10BD41F20020C0F28C
:1013C0007A0010BD216801F03F02216823684902BC
:1013D000C3F3881105D4A1FB00010023FEF7F0FE42
:1013E00006E041F20020C0F27A004843B0FBF2F080
:1013F00021680222C1F3014102EB4101B0FBF1F08F
:1014000010BD00002DE9F04182B0002800F0A2805C
:101410000446007843F60006C007C4F2020643D033
:10142000B06800F00C00042805D1306880033BD57B
:101430006068C8BB8EE0B06800F00C00082802D1DC
:1014400070684002F1D46568B5F5A02F0AD0B5F5F3
:10145000803F0BD0306820F480303060306820F45A
:10146000802006E0306840F480203060306840F42E
:1014700080303060FFF788FB002D054611D000BF9B
:101480003068800310D4FFF77FFB401B6428F7D936
:1014900022E100BFFFF778FB401B64284FF00300F8
:1014A00055D830688003F5D4207880071AD5B06805
:1014B00010F00C0F09D0B06800F00C00082840F0C4
:1014C0008A807068400200F186803068800702D50B
:1014D000E06801283ED13068216920F0F80040EA38
:1014E000C10030602078000738D4207840074CD401
:1014F000A5695DB3B06800F00C00082840F09E803C
:10150000012D27D07068E16900F480028A4221D160
:10151000216A00F03F028A421CD147F6C071626A1C
:101520000140B1EB821F15D1A26A0023CFF6FF73F1
:1015300003EBC23200F440316FF30F02914209D144
:10154000E16A00F07060B0EB016F03D1002002B0DF
:10155000BDE8F081012002B0BDE8F081606900289B
:1015600040F20000C4F2472057D00121C0F8801E8D
:10157000FFF70AFB054600BF706F8007B5D4FFF781
:1015800003FB401B0228F7D9A6E0306C10F080580E
:101590000AD100200190306C40F080503064306CF3
:1015A00000F080500190019847F20007C4F2000754
:1015B0003868C00524D4386840F480703860FFF77C
:1015C000E3FA05463868C0051AD4FFF7DDFA401B78
:1015D0000228F7D980E0E068002851D00020C4F24A
:1015E000472001210160FFF7CFFA054630688007E8
:1015F0003FF571AFFFF7C8FA401B0228F6D96BE040
:10160000A568052D50D0012D52D0306F20F001007B
:101610003067306F20F004004DE00021C0F8801EDC
:10162000FFF7B2FA054600BF706F80077FF55DAF28
:10163000FFF7AAFA401B0228F6D94DE00027C4F2B2
:10164000472700203866FFF79FFA022D05460BD189
:101650003068800158D5FFF797FA401B02284FF0F9
:101660000300F5D973E700BF306880017FF56EAFE6
:10167000FFF78AFA401B02284FF00300F4D966E70F
:101680000020C4F2472000210160FFF77DFA0546E3
:10169000306880077FF526AFFFF776FA401B0228F7
:1016A0004FF00300F4D952E7306F40F00400306788
:1016B000306F40F001003067FFF766FA002D0546F5
:1016C00041F2883714D000BF306F800713D4FFF782
:1016D0005BFA401BB842F7D9032002B0BDE8F081A5
:1016E000FFF752FA401BB8424FF003003FF62FAF0E
:1016F000306F8007F4D4B8F1000F7FF4F9AE306C8E
:1017000020F080503064F3E604F11C052FCD08432F
:101710000021CFF6FF7140EA821001EBC3316FF375
:101720000F0140EA05600843706001203866FFF74A
:101730002BFA0446306880013FF508AFFFF724FA22
:10174000001B02284FF00300F4D900E780B500F039
:1017500071FE80BDB0B590F83C20012A04BF022084
:10176000B0BD01F108053CCDD1E900CE23F47C5396
:1017700022F470521A432EF4F0431A432CF4E0433F
:101780001A4324F4C0431A432A43C96922F480420D
:10179000036811435964002180F83C100846B0BD2D
:1017A00010B590F83C20012A4FF0020252D00123DC
:1017B00080F83C3080F83D200268D2F804E0D2F88E
:1017C00008C00C682EF07003234341F2FF74C4F28A
:1017D0000004A24253600DDC40F2FF73C4F2000328
:1017E0009A4215DCB2F1804F29D040F20043C4F296
:1017F000000322E040F2FF33C4F201039A4212DCFC
:1018000041F60003C4F200039A4218D0002312E00C
:1018100040F60003C4F200039A4210D040F60043A1
:10182000C4F2000309E044F20003C4F201039A4247
:1018300005D040F20043C4F201039A4204D1496842
:101840002CF08003194391600121002280F83D10A3
:1018500080F83C20104610BD002804BF01207047CE
:1018600010B5044690F83D0028B9002084F83C00EB
:10187000204600F01FF8022084F83D002068211D5A
:1018800000F056FE012084F8460084F83E0084F8FB
:101890003F0084F8400084F8410084F8420084F856
:1018A000430084F8440084F8450084F83D0000209B
:1018B00010BD000081B000680021C4F2010188421F
:1018C00001D001B070470020009043F64400C4F2FC
:1018D0000200016841F001010160006800F00100B0
:1018E0000090009801B0704710B5044690F83C0095
:1018F00001284FF0020008BF10BD012284F83C20EF
:1019000084F83D0020684FF6777382689A438260BE
:101910000A684F2A0FDC1F2A22DD202A23D0302A12
:1019200021D0402A4DD14B68CA68194600F07CFF8F
:10193000206840213BE06F2A17DDB2F5005F20D020
:10194000B2F5805F2AD0702A3BD1D1E9012CCB6857
:10195000614600F091FE2068816841F077011AE04D
:101960000AB1102A2DD1114621E0502A18D0602A40
:1019700027D14B68CA68194600F068FF20686021CB
:1019800015E0D1E9012CCB68614600F075FE2068B6
:10199000816841F48041816000200BE0002009E073
:1019A0004B68CA68194600F03FFF2068502100F0DC
:1019B0006FFE0020012184F83D10002184F83C10C6
:1019C00010BD0120F6E7000080B586B00021006858
:1019D000C4F20101002288420592CDE9032202925D
:1019E000019201D006B080BD43F630000092C4F2EF
:1019F0000200036843F010030360006800F0100069
:101A0000009000984FF4285001900220CDE9020286
:101A10000120059001F5883001A90492FEF7E8FF46
:101A200006B080BDB0B5044690F83C00012804BF64
:101A30000220B0BD0D464FEAB2010120032984F80F
:101A40003C0037D8DFE801F0020A1222206829465C
:101A500000F026FE206850F8181F0EE02068294686
:101A600000F050FE206850F8181F16E02068294644
:101A700000F07EFE206850F81C1F41F00801016054
:101A8000016821F00401016029690FE020682946FE
:101A900000F0A2FE206850F81C1F41F400610160B4
:101AA000016821F48061016029690902026811431B
:101AB00001600020002184F83C10B0BD002804BF64
:101AC0000120704710B5044690F83D0028B9002069
:101AD00084F83C00204600F01FF8022084F83D0006
:101AE0002068211D00F024FD012084F8460084F8C0
:101AF0003E0084F83F0084F8400084F8410084F8F8
:101B0000420084F8430084F8440084F8450084F8D7
:101B10003D00002010BD00007047000010B50446D5
:101B200041B1082909D0042914BF04F1410004F18E
:101B30003F0004E004F13E0001E004F140000078C1
:101B400001281CBF012010BD022041B1082909D085
:101B5000042914BF84F8410084F83F0004E084F8AD
:101B60003E0001E084F840002068012200F072FD90
:101B7000206841F2FF71C4F2000188420FDC40F29C
:101B8000FF71C4F20001884217DCB0F1804F49D0E8
:101B900040F20041C4F20001884243D049E040F2E3
:101BA000FF32C4F20102904214DC41F60003C4F299
:101BB0000003984236D0002314E040F60001C4F23E
:101BC000000188422ED040F60041C4F20001884254
:101BD00028D02EE044F20003C4F20103984221D041
:101BE00040F20043C4F20103984222D1436C884280
:101BF00043F400434364C2DD904207DC41F6000138
:101C0000C4F2000188420DD0002107E044F2000137
:101C1000C4F20101884205D040F20041C4F2010142
:101C2000884206D1816801F00701062904BF00201F
:101C300010BD016841F001010160002010BD0000ED
:101C4000002804BF0120704710B5044690F83D00FD
:101C500028B9002084F83C00204600F021F8242018
:101C600084F83D002068C16821F40051C16020461D
:101C700000F0FEFD2068016921F490410161416995
:101C800021F02A014161C16841F40051C160002086
:101C90002021206484F83D1084F83E1010BD00001F
:101CA00080B586B041F200010068C4F20101002253
:101CB00088420592CDE903220292019201D006B03A
:101CC00080BD43F630000092C4F20200436943F045
:101CD00010034361436903F010030093009B0092DB
:101CE000036843F001030360006800F00100009006
:101CF00000984FF4C06001900220CDE90202032059
:101D000004900720059001F5704001A9FEF770FED0
:101D100006B080BD2DE9F04381B0044690F83D0047
:101D200020280BD10E4600294FF0010055D0174650
:101D3000002A52D094F83C00012803D1022001B0BF
:101D4000BDE8F083012084F83C004FF00009212019
:101D50001D46C4F8409084F83D00FEF715FFA784A7
:101D6000E784A1680746B1F5805F07D120690028A4
:101D70001CBF30464E46B046064601E04FF0000814
:101D800084F83C9007E000BF16F8010B216848601A
:101D9000E08C0138E084E08C80B1204680213A4616
:101DA0002B4600F0D3FD80B9002EEDD138F8020BA0
:101DB00021686FF35F2048600026E9E72046402154
:101DC0003A462B4600F0C2FD18B1032001B0BDE831
:101DD000F083202084F83D00002001B0BDE8F083AE
:101DE000FEE700000268516949054FF000010FD578
:101DF0006FF4806353612022016380F83D2080F8F6
:101E00003E10026C42F00402026480F83C10012192
:101E1000084670472DE9F04383B0044600681D462C
:101E20001646E26A03680F4643F4806112F5803F6C
:101E3000016018BF012A30D1016841F4807101604E
:101E400020464FF0011100223346009500F0EAF8D9
:101E500050B120680068C00544BF4FF40070206492
:101E6000032003B0BDE8F083206940F20208B0F51A
:101E7000804FC0F2010816D147F00100C0B22168BE
:101E800032460861204641462B4600F005F90028FD
:101E900018BF012003B0BDE8F083082ACCD0216B25
:101EA0001129C9D0CCE7062000EAD719206809F12A
:101EB000F001016108F10601204632462B4600F090
:101EC000EBF848B92068F9B2016120464146324634
:101ED0002B4600F0E1F818B1012003B0BDE8F08313
:101EE00000200290206800224169334602918169F6
:101EF00002910299016841F48071016020464FF01F
:101F00000111009500F08EF80028A2D149F0F100EF
:101F1000B5E700002DE9F04182B00446C06A1D46D5
:101F2000164610F5803F0F4618BF012823D12068C0
:101F3000016841F48071016020464FF001110022D8
:101F40003346009500F06EF850B120680068C00577
:101F500044BF4FF400702064032002B0BDE8F0815C
:101F6000206940F20208B0F5804FC0F2010808D1A4
:101F700007F0FE0018E00828D9D0206B1228D6D030
:101F8000DAE7062000EAD7102168F030086108F18E
:101F90000601204632462B4600F07EF818B101209B
:101FA00002B0BDE8F081F8B22168324608612046EF
:101FB00041462B4600F070F8002818BF012002B0FF
:101FC000BDE8F081F0B581B0044600684069400783
:101FD00024D415460E464F1C04E000BF206840691B
:101FE00040071BD42046FFF7FDFEA0B9002FF5D017
:101FF000FEF7CAFD16B1401BB042EFD900202021E8
:10200000206384F83D1084F83E00216C41F02001EB
:10201000216484F83C00012001B0F0BD002001B033
:10202000F0BD00002DE9F047DDF820801D46914607
:10203000824601F47F078EB25C1C00BFDAF8000014
:10204000B7F5803F14BF1830143000683040801B53
:10205000B0FA80F0400948451BD1002CEED0FEF7C5
:1020600093FD1DB1A0EB0800A842E7D90020202174
:10207000CAF830008AF83D108AF83E00DAF84010BD
:1020800041F02001CAF840108AF83C000120BDE868
:10209000F0870020BDE8F0872DE9F0410446006894
:1020A000984643698FB203EA0701B94202D1002082
:1020B000BDE8F0814169490512D41646551C00BFA0
:1020C00035B1FEF761FD16B3A0EB0800B0421ED893
:1020D000206841693940B942E9D041694905EFD5E5
:1020E000016841F4007101606FF48061416100207A
:1020F0002021206384F83D1084F83E00216C41F0DB
:102100000401216484F83C000120BDE8F081002036
:102110002021206384F83D1084F83E00216C41F0BA
:102120002001EEE770B515460E4604462068416969
:10213000490613D44169C90612D4FEF725FD16B12C
:10214000401BB042F2D900202021206384F83D10CA
:1021500084F83E00206C40F020000CE0002070BDB0
:102160006FF01001416100202021206384F83D10B0
:1021700084F83E00206C2064002084F83C0001209C
:1021800070BD0000F0B581B00446006840690006EB
:1021900024D415460E464F1C04E000BF2068406959
:1021A00000061BD42046FFF71DFEA0B9002FF5D076
:1021B000FEF7EAFC16B1401BB042EFD90020202107
:1021C000206384F83D1084F83E00216C41F020012A
:1021D000216484F83C00012001B0F0BD002001B072
:1021E000F0BD000081B0002043F630010090C4F241
:1021F00002010A6842F080020A600A6802F0800266
:102200000092009A00900A6842F010020A600A6880
:1022100002F010020092009A00900A6842F0010257
:102220000A600A6802F001020092009A00900868B1
:1022300040F002000860086800F00200009000987A
:1022400001B0704780B540F24C0045F20041C2F247
:102250000000C4F2000141F6802200234FF4804CBC
:10226000C0F2060280E80E00C0E9033CC0E9053375
:10227000C0E90733FEF78EFC002818BFFEF79EFB6F
:1022800080BD000010B596B040F2A00000220021F1
:10229000C2F20000C4F2010220234FF4AF541591A2
:1022A000CDE91311CDE91111CDE90F11CDE90D11D2
:1022B000CDE90B11CDE90911CDE90711CDE90511E2
:1022C000CDE90311CDE90111C0E90021C0E90234D3
:1022D000C0E904118161FFF7BFFA002818BFFEF7BB
:1022E0006DFB4FF48050129040F2A000C2F200004B
:1022F00012A9FFF7F9FA002818BFFEF75FFB40F2BA
:10230000A000C2F20000FFF7D9FB002818BFFEF7BB
:1023100055FB40F2A0000024C2F2000010A9CDE954
:102320001044FFF73DFA002818BFFEF747FB602076
:10233000CDE9090440F2A000C2F2000009A9002280
:10234000CDE90B44CDE90D440F94FFF76BFB00285A
:1023500018BFFEF733FB40F2A000C2F2000009A94B
:102360000422FFF75FFB002818BFFEF727FB40F2AF
:10237000A000C2F2000009A90822FFF753FB0028C1
:1023800018BFFEF71BFB00200590CDE90300CDE947
:1023900001004FF40051089040F2A0000691C2F2F3
:1023A000000001A9FFF7D6F9002818BFFEF706FBC9
:1023B00040F2A000C2F20000FFF706FB16B010BD0D
:1023C00080B540F2E80041F20001C2F20000C4F220
:1023D000010100234FF00C0C4FF4E13280E80E00B5
:1023E000C0E90333C0E905C3C361FFF729FC002836
:1023F00018BFFEF7E3FA80BDFEE70000FEE700002D
:1024000000F0070080F00703042B28BF04234FF0DF
:10241000FF3C03380CFA03F338BF00209943814096
:102420000CFA00F022EA00000843704770470000F1
:1024300070470000B0B501380024B4EB106F1CBF2A
:102440000120B0BD4EF21005CEF2000568604FF0DD
:10245000FF300F2100F0C2FA0720AC602860204650
:10246000B0BD000080B540F24000C2F20000012182
:102470000170FEF735FE80BD70B592B006AC204607
:102480003021FDF7D5FE002543F640000595CDE946
:102490000355CDE901550095C4F2020001680226FA
:1024A00041F080510160006800F080500090009879
:1024B00047F200000095C4F20000016841F4804139
:1024C00001600068A82100F480400090009801207D
:1024D00006904FF4803007904FF480000D90042058
:1024E0000E90119020460C96CDE90F16FEF78AFF4C
:1024F00088B90F20CDE901064FF4A05004904FF4A5
:102500008050059001A805210395FEF76BFE002879
:1025100004BF12B070BDFEF751FA00004EF68850AD
:10252000CEF20000016841F47001016070470000C4
:1025300010B540F6FF3E0368C4F2000E40F2004CB6
:102540007045C4F2010C0FDCB0F1804F19D040F29D
:102550000042C4F20002904213D040F60002C4F2DE
:10256000000290420DD010E040F60042C4F200029A
:10257000904206D0604504D00022C4F2010290428D
:1025800003D14A6823F07003134341F6FF72C4F28B
:10259000000290420DDC70451FDCB0F1804F41D04D
:1025A00040F20042C4F2000290423BD040F60002EA
:1025B00021E043F6FF72C4F20102904220DC42F2B5
:1025C0000002C4F2000290422CD00022C4F20102A8
:1025D000904227D0604525D028E040F60042C4F262
:1025E000000290421ED041F60002C4F20002904266
:1025F00018D041F60042C4F20002904212D015E019
:1026000044F20002C4F2010290420BD044F60002F0
:10261000C4F20102904205D044F20042C4F2010229
:10262000904203D1CA6823F44073134323F080021D
:102630004B69D1F800E08C681A430260C46240F430
:102640008062C0F828E0624504BF09690163012186
:10265000416110BD80B501F01F014FF0010CD0F8B1
:1026600020E00CFA01F32EEA03030362036A02FA84
:1026700001F11943016280BDD0F808C011432CF468
:102680007F4C41EA032141EA0C0181607047000060
:10269000826822F07002114341F0070181607047A7
:1026A000B0B5026A40F2004522F001020262026AFD
:1026B000D0F804E0D0F818C08C6822F0020240F490
:1026C0008063C4F20105AB4242EA040205D1CC6842
:1026D00022F00C0224F0040422430C68AB4207D120
:1026E000D1E905532EF4407E45EA0E0545EA030E76
:1026F0002CF073032343C0F804E08361496841630D
:102700000262B0BD70B5026A40F2004422F01002CD
:102710000262026AD0F804E0D0F818C08D6822F096
:10272000200240F48063C4F20104A34242EA05128D
:1027300007D1CD686FF0400622F0C00206EA051509
:102740002A430D68A34207D1D1E905642EF4406302
:1027500043EA860343EA840E2CF4E64343EA052366
:10276000C0F804E0836149688163026270BD0000C3
:1027700070B5026A40F2004422F480720262026A7A
:10278000D0F804E0D0F81CC08D6822F4007240F448
:102790008063C4F20104A34242EA052207D1CD6856
:1027A00040F2FF462D0222F44062B5432A430D68F1
:1027B000A34207D1D1E905642EF4405343EA06133E
:1027C00043EA041E2CF073032B43C0F804E0C361FA
:1027D0004968C163026270BD70B5026A40F200468A
:1027E00022F480520262026A4368D0F81CE00C684E
:1027F000D1F808C040F48065C4F20106B54204D1A6
:102800004D6923F4804343EA85132EF4E64646EAF5
:1028100004264360C66122F40052496842EA0C3241
:102820000164026270BD0000D0F820C0036A23F08A
:1028300001030362836923F0F00343EA02122CF0E0
:102840000A0319438261016270470000036A23F0A2
:10285000100303628369D0F820C023F4704343EA75
:1028600002322CF0A00343EA011182610162704739
:1028700010B504460068D4E902C22369016921F455
:10288000405111430161626943EA0C01E36911435C
:10289000C268194349F20C639A431143C16041690C
:1028A000A26921F4407141F20043114340F4806277
:1028B000C4F201039A42416102D1FEF75BFD01E0DF
:1028C000FEF746FDE16963681922B1F5004FA0FBF0
:1028D00002011CD15A00DB0FFDF772FC48F21F51B8
:1028E000C5F2EB11A0FB01235A096FF0630302FB51
:1028F0000300322303EBC000A0FB01014FF4F8708A
:1029000000EA111000EB0210C1F342111AE09A0024
:102910009B0FFDF755FC48F21F51C5F2EB11A0FBD0
:1029200001235A096FF0630302FB0300322303EB18
:102930000010A0FB0101F02000EA511000EB021092
:10294000C1F3431122680843906010BD2DE9F041A6
:102950000446006800680840884202D10020BDE8B3
:10296000F0811D460E4690465F1C04E0206800681A
:102970003040B042F2D0002FF8D02DB1FEF704F96C
:10298000A0EB0800A842F1D9206850E8030F2168A5
:1029900020F4D07041E80302002AF5D1206850E805
:1029A000050F216820F0010041E80502002AF5D159
:1029B000202084F83D0084F83E00002084F83C008C
:1029C0000320BDE8F0810000FEE700004EF60C5049
:1029D000CEF200000068C0F3022070474EF6145398
:1029E00000F00F02CEF2000309011A4400F1604327
:1029F000B0F1FF3FC8BF03F564421170704700009B
:102A00004EF60C51CEF200010A684FF6FF031A4051
:102A100060F30A2242F0806040F0FD700860704769
:102A200080B52DED028B40F2080040F20C01C2F29D
:102A30000000C2F2000100680968484300EE100A75
:102A4000B8EEC08A00F02CF940F23810C2F2000053
:102A500090ED001A20EE080A30EE410A00F004F86A
:102A6000BDEC028B80BD000080B510EE100AFDF7B2
:102A70009AFD41EC100B9FED0C1B00F095FB51EC07
:102A8000100BFDF7A3FD9FED0A0A01EE100A31EECF
:102A9000000AB5EE401AF1EE10FAA8BFB0EE410AF6
:102AA00080BD00BF00BF00BF00000060FB211940D7
:102AB000DB0FC94000000000B0B52DED048B00F025
:102AC0008FF840F23804C2F2000400EE100A94EDD0
:102AD000001AB8EE408A38EE419A19EE100A20F03A
:102AE0000040FDF760FD9FED200B53EC102BFDF730
:102AF00032FD40F24405C2F20005A0B91CA0B5EEBB
:102B0000409AF1EE10FAC8BF083090ED009B28689B
:102B1000FDF749FD02460B4651EC190BFDF793FBFF
:102B2000FDF754FD2860286884ED008AFDF73BFD21
:102B30009FED150A044628EE000A10EE100A0D4615
:102B4000FDF731FD9FED0E0B53EC102BFDF722FC32
:102B500022462B46FDF777FBFDF738FD00EE100A05
:102B6000BDEC048BB0BD00BF9A9999999999A94081
:102B7000EA2E4454FB211940EA2E4454FB2119C08B
:102B8000EA2E4454FB211940000080390000000067
:102B900080B500F025F8FDF7F9FC9FED0B0B53EC29
:102BA000102BFDF7F7FB9FED0A0B53EC102BFDF7F5
:102BB000F1FB9FED090B53EC102BFDF75DFCFDF7CE
:102BC00005FD00EE100A80BD8E3BA583F57FB63F64
:102BD000F4D64354FB210940000000000080664009
:102BE00080B582B00020ADF806000C208DF80500FD
:102BF0000DF1050000F086F80DF1060000F070F808
:102C0000BDF8060000BA000C02B080BD80B540F2ED
:102C10004400C2F2000000210160FFF7E1FF00EE76
:102C2000100A40F23800B8EE400AC2F2000080ED0F
:102C3000000A80BD80B5FFF7ABFF40F23C00C2F256
:102C4000000090ED002AB0EE401A30EE420A9FEDEF
:102C5000122AB0EEC03AB4EE423A40F24801F1EE28
:102C600010FAC2F200010ADD0122B5EE400A0B683B
:102C7000F1EE10FAC8BF4FF0FF321A440A6091ED2E
:102C8000000A9FED062AB8EEC00A20EE020A31EED5
:102C9000000A80ED001A80BD7CD9A040DB0FC9403E
:102CA00080B5FFF7C7FF80BD80B5FFF705FF80BD8A
:102CB00080B5FFF7BFFF80BD80B5FFF7A7FF80BDE0
:102CC00080B582B0019040F2E800C2F2000001A994
:102CD00001226423FFF71EF8019802B080BD0000B6
:102CE00080B582B0024640F24C004FF00C0CC2F2AC
:102CF00000006D210223CDF800C0FEF717F802B0E6
:102D000080BD000080B582B0024640F24C004FF01A
:102D10000B0CC2F200006C210123CDF800C0FEF7BD
:102D200009F902B080BD0000FEF7E8F9FFF7A4FB47
:102D3000FFF758FAFFF786FAFFF7A4FAFFF740FB10
:102D400040F2A004C2F20004204600214FF0000827
:102D5000FEF7E4FE20460421FEF7E0FE20460821AF
:102D6000FEF7DCFEFFF7A8FF9FED230AFDF7DCFD71
:102D700007204FF0FF31FDF7DFFD20A001F08CFBB5
:102D800040F2400640F2340740F22C159FED259AA0
:102D90009FED25AA9FED25BAC2F20006C2F20007F8
:102DA000C2F200051BA400BF30780028FCD086F8D2
:102DB0000080FFF77DFF87ED000A85ED000AFFF731
:102DC00073FF10EE100AFDF7EEFB024620460B469D
:102DD00000F05CF995ED000A20EE090A20EE0A0ADF
:102DE00080EE0B8AFFF71CFEF0EE400AB0EE480AB8
:102DF00000F072F8D8E700BF6666464153797374F5
:102E0000656D20697320696E697469616C697A65A2
:102E1000642E0D00616E676C653A252E32660D0AD0
:102E200000000000CC7F083E00003443DB0F494027
:102E300040F23410C2F2000090ED002AB7EE004AD2
:102E400080EE020A80EE823A81EE021A9FED205A4D
:102E50003423C4F20103B4EE440AF1EE10FAB5EEE5
:102E6000400AC8BFB0EE440A20EE050ABCEEC00A14
:102E700010EE100AF1EE10FAB4EE443AB8BF00209A
:102E8000F1EE10FAB5EE403AC8BFB0EE443A23EE88
:102E9000050ABCEEC00A10EE101AF1EE10FAB4EEFC
:102EA000441AB8BF0021F1EE10FAB5EE401AC8BFBF
:102EB000B0EE441A21EE050ABCEEC00A10EE102A4C
:102EC000F1EE10FAB8BF0022186059609A6070479E
:102ED0000000AF45000000002DE9F04F81B02DED5E
:102EE000068B82B040F23417C2F2000797ED001A49
:102EF000BEEE002A21EE029AB4EE409AF1EE10FAEC
:102F00000CDCB6EE002A21EE021AB4EE401AF1EE05
:102F100010FAB8BFB0EE410AB0EE409AB0EE600AC7
:102F2000FFF7A2FD19EE104A84F00040B0EE408A8F
:102F3000FDF739FB054618EE100A0E46FDF733FB88
:102F400041EC180BB0EE480AF0EE680A00F0B0F958
:102F500051EC100B2A463346FDF71CFAFDF736FB01
:102F600040F22406C2F2000630602046FDF71BFB4B
:102F7000B0EE480AF0EE680A04460D4600F0B0F8DC
:102F800051EC100B22462B46FDF704FAFDF71EFB11
:102F900040F22C0197ED000AC2F2000196ED009A72
:102FA000B6EE001A086020EE01AA40F2200139EEC8
:102FB0000A8AC2F2000181ED008AFDF7F4FA9FED62
:102FC0002E0B53EC102BFDF7E5F919EE10AA044671
:102FD000019050468946FDF7E6FA02460B46204628
:102FE0004946FDF7D1F99FED260B5BEC104B2246CD
:102FF0005B46FDF7CFF907461AEE100A8846FDF743
:10300000D2FA05460E46384641462A463346FDF773
:103010001AF9FDF7DBFA40F22801C2F2000109EECD
:10302000100A08608AF00040FDF7BDFA019A4B468D
:10303000FDF7AAF922465B46FDF7ACF92A4633466E
:10304000FDF701F9FDF7C2FA40F2300101EE100A76
:10305000C2F20001B0EE480AF0EE490A0860FFF73C
:10306000E7FE9FED090A02B0BDEC068B01B0BDE89A
:10307000F08F00BF00BF00BFAA4C58E87AB6FB3FF4
:10308000000000000000E03F000000000FB4054B0E
:1030900010B503A9044A029800F05AFE10BC5DF86E
:1030A00014FB0000C12C00080000002003B40198AC
:1030B0004100009850EAC12018BF04204A0D18BFF3
:1030C00040F0010040F2FF72B2EB515F08BF40F0E8
:1030D0000200012808BF052002B070470000000070
:1030E00010B52F499FED2C1B2DED020B84B00598D8
:1030F00020F000408842D8BF9DED040B2DDD29490A
:10310000884209D1049840B94FF0010000F058FD01
:1031100000F026FD06B010BD05DB9DED040B00F0B0
:1031200013FD06B010BD68469DED040B00F024F9B8
:1031300010F0030004BF9DED021B9DED000B0CD0B1
:1031400001280ED09DED021B9DED000B022817D02B
:10315000012000F061FC06B010BD00F029FB06B0B4
:1031600010BD9DED021B9DED000B012000F054FCF5
:1031700051EC100B81F0004106B041EC100B10BD7A
:1031800000F016FB51EC100B81F0004106B041EC51
:10319000100B10BD00000000000000000000000047
:1031A000FB21E93F0000F07F10B52DED040B86B048
:1031B0009DED060B10EE100A10EE901A8DED000B2F
:1031C000002818BF0120084320F00040C0F17F60B4
:1031D00000F1E040C00F21D19DED080B10EE101A58
:1031E00010EE900A8DED000B002918BF0121084355
:1031F00020F00040C0F17F6000F1E040C00F0DD131
:1032000029490798B1EB400F04BF0698002842D027
:103210000998400004BF089800283CD09DED080B99
:1032200053EC102B9DED060B51EC100BFDF7C5FA7E
:10323000CDE902019DED020B40F2FF7110EE900A04
:103240008DED000B31EA105021D00798039900F062
:10325000004001F00041884219D09DED080B8DED32
:10326000040B9DED020B8DED000B10EE900A0599FD
:1032700061F31E0005909DED041B9DED020B51ECCA
:10328000110B53EC102BFDF782F8CDE902019DEDF7
:10329000020B0AB010BD012000F092FC0AB0BDE89C
:1032A000104000F05DBC00000000E0FF00000000E6
:1032B00010B52F499FED2C1B2DED020B84B0059806
:1032C00020F000408842DCBF00209DED040B32DD81
:1032D0002849884209D1049840B94FF0010000F014
:1032E0006FFC00F03DFC06B010BD05DB9DED040B4E
:1032F00000F02AFC06B010BD68469DED040B00F0FE
:103300003BF810F0030011D0012818D09DED021BEE
:103310009DED000B02281AD000F04AFA51EC100B78
:1033200081F0004106B041EC100B10BD9DED021B79
:103330009DED000B012000F06FFB06B010BD9DED70
:10334000021B9DED000B00F033FA06B010BD01200A
:1033500000F062FB51EC100B81F0004106B041EC33
:10336000100B10BD00000000000000000000000075
:10337000FB21E93F0000F07F2DE9F14F04462DEDE0
:10338000020B2DED088B8AB09FEDE70B80ED020B51
:10339000139EE74826F0004585420ADC9DED120B9E
:1033A000002084ED000B0AB0BDEC088B03B0BDE833
:1033B000F08FE0489FEDE0AB9FEDE1BBA84247DD19
:1033C000E14F9FEDE39B9FEDE48B9DED120B53ECE2
:1033D0001A2B51EC100B002E1CDDFCF7D5FF41EC35
:1033E000100BBD4208D053EC1B2B51EC100BFCF71B
:1033F000CBFFC4E900010BE053EC192B51EC100B8F
:10340000FCF7C2FF53EC182BFCF7BEFFC4E9000128
:103410000120C8E7FCF717FF41EC100BBD4208D0B4
:1034200053EC1B2B51EC100BFCF70DFFC4E9000112
:103430000BE053EC192B51EC100BFCF704FF53EC91
:10344000182BFCF700FFC4E900014FF0FF30AAE79A
:10345000C348A84279DB9DED120B51EC100B01F033
:103460000EF841EC180B9FEDC00B53EC102BFCF742
:1034700091FF9FEDBF1B53EC112BFCF7E4FEFDF712
:1034800032FA0746FDF71EFA41EC190B53EC1A2BE2
:10349000FCF780FF53EC182BFCF779FF41EC180B7D
:1034A00053EC1B2B51EC190BFCF774FFDFF8C8A28F
:1034B00041EC100B4FEA15580125FA4453EC102B40
:1034C00051EC180BFCF760FF032DC4E900013DD05F
:1034D000C1F30A5005EB4511A8EB000011398142F8
:1034E00034DA0AEB051BB0EE48AA9BED000BF0EEB8
:1034F00068AA53EC102B51EC190BFCF74BFF41EC75
:103500001B0B51EC1A0B53EC1B2BFCF73DFF41EC52
:10351000180B51EC1A0B53EC182BFCF735FF53EC3E
:103520001B2BFCF731FF9BED020B41EC1A0B53EC0C
:10353000102B51EC190BFCF72DFF53EC1A2BFCF759
:1035400023FF41EC100B6D1CB8E70EE0002EA8BF66
:103550003846BFF628AF94ED000B51EC100B81F00C
:103560000041C4E9000178421DE7C6F3130040F4AE
:10357000801EC6F30A50A0F2F530471100F01F0577
:10358000C5F12000DDF848B00890002006900790B3
:103590000520EC467949002D07EB0002794408BF6D
:1035A00051F8221009D051F8223001EB8201AB40D2
:1035B0004A68089922FA01F11943A1FB0E26A1FBE2
:1035C0000B131A449A4234BF0123002303EB06086D
:1035D0000CEB8003D3E901A60E448E4234BF0121D7
:1035E000002192448A4411B1924502D903E09245E8
:1035F00001D2012100E00021C3E901A641444CF8B9
:103600002010011EA0F10100C4DC029800F100505E
:10361000850F0298DDE903678000DDF81480FDF76F
:1036200051F941EC1A0B3046FCF7B0FF9FED541BEB
:1036300053EC112BFCF7AEFE41EC1B0B3846FCF7AC
:10364000A5FF9FED511B53EC112BFCF7A3FE41ECA2
:10365000180B4046FCF79AFF9FED4D1B53EC112BC6
:10366000FCF798FE41EC190B51EC180B53EC192B9D
:10367000FCF7E9FD53EC1B2BFCF7E5FD53EC1A2B93
:10368000FCF7E1FDCDE90801002008909DED080B55
:1036900053EC1A2B51EC100BFCF776FE53EC1B2B62
:1036A000FCF772FE53EC182BFCF76EFE53EC192B53
:1036B000FCF76DFE9FED381B53EC112BFCF76AFEF7
:1036C0009FED370B41EC180B53EC102B9DED080BC5
:1036D00051EC100BFCF75EFE53EC182BFCF7B3FD1E
:1036E0009FED310B41EC180B53EC102B9DED080BAB
:1036F00051EC100BFCF74EFE53EC182BFCF7A3FD1E
:1037000041EC100B139810F0004F06D06D4251ECB5
:10371000100B81F0004141EC100B284684ED000BAA
:1037200041E6000000000000000000000000000072
:10373000FB21E93F7CD9024000004054FB21F93FC6
:103740003163621A61B4D03DFB21F93F00000000F3
:103750000000601A61B4D03D7370032E8A19A33B38
:10376000FB2139410000000083C8C96D305FE43F90
:10377000000000000000E03F32100000800F000059
:10378000000000000000103E000000000000103C9F
:10379000000000000000103A182D4454FB21F93DB0
:1037A0003326A611460B113C00000054FB21F93DC5
:1037B00010B52DED040B2DED088B82B0B0EE419AC3
:1037C000F0EE619A0B9820F000449FED4BABB4F102
:1037D000795F11DA9DED0A0B51EC100BFDF783F8C0
:1037E000002801BFB0EE4A0AF0EE6A0A02B0BDEC52
:1037F000088B04BF04B010BD9DED0A0B53EC102BD9
:1038000051EC100BFCF7C6FD41EC180B3C480621AF
:10381000B0EE480AF0EE680A784400F081F853EC04
:10382000182B51EC100BFCF7B5FD9DED0A0B41EC8C
:103830001B0B53EC192B51EC100BFCF7ABFD41ECBF
:10384000190B53EC1B2B51EC180BFCF7A3FD53EC9D
:10385000192BFCF799FD9FED2C0B41EC190B53EC48
:10386000102B51EC180BFCF795FD41EC100B284880
:10387000844210DA53EC192B51EC100BFCF784FD49
:1038800053EC1A2BFCF783FD41EC100B02B0BDEC9E
:10389000088B04B010BD1F48A042BCBF9FED1E1B8B
:1038A0008DED001B06DBA4F50010019000200090B8
:1038B0009DED001B51EC100B53EC112BFCF764FD3C
:1038C0009DED000B41EC180B53EC102B51EC1A0B37
:1038D000FCF75AFD41EC1A0B53EC192B51EC180B69
:1038E000FCF752FD53EC1A2BFCF751FD41EC100B89
:1038F000CCE7000000000000000000000000F03FE6
:10390000A40C000000000000000000000000E03FE8
:103910003333D33F0000E93F000000000000D23FF6
:1039200070B504462DED028B4D1E00EBC500B0EEC8
:10393000408AF0EE608A90ED000B35F0060017D05B
:1039400053EC182B51EC100BFCF724FD41EC100B41
:103950006D1E04EBC50090ED001B51EC100B53ECF9
:10396000112BFCF770FC41EC100B35F00600E7D191
:10397000022D36D0042D1CD0062D1CBFBDEC028BB1
:1039800070BD53EC182B51EC100BFCF703FD94EDBC
:103990000A1B53EC112BFCF756FC53EC182BFCF7CD
:1039A000F9FC94ED081B53EC112BFCF74CFC41EC9B
:1039B000100B53EC182B51EC100BFCF7EBFC94EDB7
:1039C000061B53EC112BFCF73EFC53EC182BFCF7B9
:1039D000E1FC94ED040B53EC102BFCF734FC41ECB0
:1039E000100B53EC182B51EC100BFCF7D3FC94ED9F
:1039F000021B53EC112BFCF726FC53EC182BFCF7A5
:103A0000C9FC94ED001B53EC112BFCF71CFCBDEC26
:103A1000028B41EC100B70BD31B504462DED040B4B
:103A20002DED0A8BB0EE41BAF0EE61BA0B989DED28
:103A30000A0B20F00040B0F1795F0DDA51EC100B69
:103A4000FFF734FB042808BF00F09AF89DED0A0B3D
:103A5000BDEC0A8B05B030BD53EC102B51EC100BB4
:103A6000FCF798FC41EC180B9DED0A0B53EC182B5E
:103A700051EC100BFCF78EFC41EC190B2C48B0EE0E
:103A8000480AF0EE680A05217844FFF749FF9FEDE8
:103A90002ACBB0EE40AAF0EE60AA9CB353EC1C2BEC
:103AA00051EC190BFCF776FC41EC1C0B53EC1A2B78
:103AB00051EC190BFCF76EFC9FED210B41EC190B3F
:103AC00053EC102B51EC1B0BFCF764FC53EC192B43
:103AD000FCF75AFC53EC182BFCF75CFC53EC1B2B4B
:103AE000FCF752FC53EC1C2BFCF74EFC9DED0A1B23
:103AF00053EC112BFCF74BFCBDEC0A8B05B041ECF1
:103B0000100B30BDFFE753EC1A2B51EC180BFCF7F0
:103B100041FC53EC1C2BFCF796FB53EC192BFCF7E8
:103B200039FC9DED0A1B53EC112BFCF78CFBE3E7F2
:103B3000340B000000000000495555555555C5BFD0
:103B4000000000000000E03F10B553EC102B51ECDA
:103B5000100BFCF778FB41EC100B10BD00000000CF
:103B60009FED050B10B553EC102B51EC100BFCF72F
:103B700083FC41EC100B10BD0000000000000000B1
:103B80009FED050B10B553EC102B51EC100BFCF70F
:103B900001FC41EC100B10BD000000000000001003
:103BA00002E008C8121F08C1002AFAD17047704706
:103BB000002001E001C1121F002AFBD17047000064
:103BC0000149086070470000040000202DE9FF5FF4
:103BD00082B00021DDE90430020DDDF840B003437E
:103BE00018D044F61050A2F2FF3242431514119837
:103BF00001281FD0A5EB0B00401C5FEA000A4FF024
:103C000000064E4FDFF83891B046504615D5CAF140
:103C1000000413E0119801244AA3012801D16FEA9E
:103C20000B010298119AC0E90031C0E9024206B0C6
:103C3000BDE8F09FCBF10000DFE704460021404AD9
:103C4000491842EB0450CDE9001012E0E00707D01C
:103C500032463B4640464946FCF79CFB8046894637
:103C600032463B4610461946FCF794FB06460F4683
:103C70006410002CEAD1DDE90401DDE90023BAF18A
:103C8000000F06DAFCF786FB42464B46FCF782FB48
:103C900005E0FCF7F1FB42464B46FCF7EDFB044622
:103CA0000E460022284BFCF7E3FD03D84FF0FF300F
:103CB000014607E00022254B20463146FCF7C3FAB7
:103CC000FCF7BEFD102409E0002C0ADB0A220023C9
:103CD000FCF776FA039B30321A55641E50EA010253
:103CE000F2D1641C039AC4F111031444119A012AFD
:103CF00003D0012208430DD10AE0084304D000207C
:103D00004FF0110B119072E7A3EB0B056D1E0DE048
:103D10005B4504DD4FF0000205F1010504E003DA24
:103D20004FF00002A5F10105002AECD0029811998C
:103D3000C0E90231C0E9004579E700000000144005
:103D40000000F03F300000000000F0430000E03FC2
:103D50002DE9FF4F95B09B468946064600250FE2A8
:103D6000252877D100242746F84A0121059400E050
:103D7000044316F8013F203B01FA03F01042F7D14B
:103D800030782A2811D06FF02F033078A0F130025C
:103D9000092A16D8059A44F0020402EB820203EBCA
:103DA00042021044761C0590EFE759F8042B059267
:103DB000002A03DA504244F40054059044F002040F
:103DC000761C30782E2816D116F8010F44F0040422
:103DD0002A280DD06FF02F023078A0F13003092B84
:103DE00009D807EB870302EB4303C718761CF3E7F8
:103DF00059F8047B761C30786C280FD006DC4C28F0
:103E000017D068280DD06A2814D104E0742810D087
:103E10007A280FD10DE044F400140AE044F4801431
:103E200001E044F440147278824202D104F5801417
:103E3000761C761C307866280BD013DC582877D097
:103E400009DC002875D04528F6D04628F4D047284C
:103E50001AD19DE118E0632835D0642879D065280F
:103E600012D195E1702873D008DC6728F1D0692859
:103E70006FD06E280DD06F2806D1B5E073282CD0F6
:103E8000752875D0782874D05A46179990476D1CBC
:103E900075E1C4F30250022809D003280DD0D9F8E7
:103EA000001004280DD00D6009F1040967E1D9F86C
:103EB0000010EA17C1E90052F6E7D9F800100D80AA
:103EC000F2E70D70F0E719F8041B8DF800100020E0
:103ED0008DF80100EA46012003E059F804AB4FF0E9
:103EE000FF3061074FF0000102D40DE008F101013D
:103EF0008846B9420FDA8045F8DB1AF80810002925
:103F0000F4D108E008F1010188468142FADB1AF891
:103F100008100029F6D105985B46A0EB080721465A
:103F20003846179A00F094FA284400EB080507E099
:103F30004DE029E10DE01AF8010B5A461799904718
:103F4000B8F10108F7D25B4621463846179A13E1CB
:103F500042E00A220092C4F302524FF0000A022A01
:103F600008D059F804CB032A4FEAEC710AD00DE0CF
:103F700029E02AE009F1070121F00702F2E802C175
:103F8000914609E00FFA8CFC4FEAEC71042A03D148
:103F90004FFA8CFC4FEAEC71002907DA0A4600213F
:103FA000DCF1000C61EB02012D2202E0220504D5B8
:103FB0002B228DF80420012203E0E20701D0202209
:103FC000F7E7904659E00A2102E010220DE01021A7
:103FD0004FF0000A00910BE010224FF0000A44F06D
:103FE00004040827009203E008224FF0000A009220
:103FF000C4F30252022A05D059F804CB0021032A47
:1040000008D009E009F1070121F00702F2E802C136
:10401000914605E01FFA8CFC042A01D10CF0FF0C3C
:104020004FF00008220728D5702806D0009B83F0A7
:10403000100353EA0A0305D00EE040228DF8042055
:10404000012208E05CEA010206D030228DF804204B
:104050008DF8050002229046009B83F0080353EA86
:104060000A030AD15CEA010201D1620705D53022B8
:104070008DF804204FF001087F1E582804D034A08A
:1040800003900EA802900DE036A0F9E75346604673
:10409000009AFCF795F884460398825C0298401ECB
:1040A000029002705CEA0100F0D1029806A9081A99
:1040B00000F1200A600702D524F4803400E00127D3
:1040C000574502DDA7EB0A0000E0002000EB0A01E3
:1040D000009005984144401A0590E00306D45B46E1
:1040E0002146179A059800F0B3F90544002706E029
:1040F00001A85A46C05D179990476D1C7F1C474523
:10410000F6DBE0030CD55B462146179A059800F0D4
:104110009FF9054404E030205A46179990476D1CDA
:104120000099481E00900029F5DC08E002980299E9
:104130005A460078491C0291179990476D1CBAF1B4
:104140000001AAF1010AF1DC65E100000928010083
:1041500030313233343536373839616263646566FD
:1041600000000000303132333435363738394142BF
:10417000434445460000000000F058F90544761C11
:10418000307800287FF4ECAD19B02846BDE8F08FF8
:10419000620700D4062709F1070222F0070CFCE8A9
:1041A0000223E14603F000485FEA080C02D00FF258
:1041B000702C0DE05FEA045C02D50FF2682C07E07A
:1041C0005FEAC47C02D00FF2602C01E0AFF2700C09
:1041D0004FF0FF3823F00043CDF850C065280CD0D5
:1041E00006DC452809D046281DD047283DD13DE0B2
:1041F000662818D067287ED138E00021112F01DB16
:10420000112000E0781CCDE9000106A90EA8FFF7F7
:10421000DDFCDDE90F010E9A03910021009207F108
:10422000010A04914DE04FF000400097CDE90110E4
:1042300006A90EA8FFF7CAFCDDE90F0203920E9B48
:1042400011990022DDF80CA00093049211B9791C99
:1042500000EB010AB7EB0A0004D4C0F1FF3007F10C
:10426000010A0490AAEB0700019044E0012F00DA54
:1042700001270021112F01DD112000E03846CDE992
:10428000000106A90EA8FFF7A1FCDDE90F010E9AB7
:104290000391002104910092BA4621070CD403999E
:1042A000514500DA8A46BAF1010F05DD009AAAF1FC
:1042B0000101515C302908D0B84202DA10F1040F34
:1042C00006DA0121CDE9011015E0AAF10101E9E7C3
:1042D000002805DC049901440491AAEB000102E0E6
:1042E000411C514500DD8A460499401A401C01904A
:1042F0004FF000400290200704D40198504501DBA4
:10430000CDF8048000208DF84F0002980DF14F0782
:10431000B0F1004F25D02B200E9002984FF00208EC
:1043200000280CDA404202902D200E9007E00A216E
:104330000298FCF767F93031029007F8011DB8F1D7
:104340000001A8F10108F2DC02980028EFD1791EE3
:104350000E980870307800F0200040F0450007F813
:10436000020D12A8C01B00F107081498007800B1D4
:10437000012000EB0A01019801EBE071059841442E
:10438000401A401E0590E00306D45B462146179A6A
:10439000059800F05DF805441498007818B15A4665
:1043A000179990476D1CE00324D55B462146179A68
:1043B000059800F04DF805441CE00498002807DB40
:1043C000DDE90301884203DD0098405C179901E0B4
:1043D000179930205A469047049805F10105401C72
:1043E00004900198401E019004D12E205A4617993E
:1043F00090476D1CBAF10001AAF1010ADDDC05E06D
:1044000017F8010B5A46179990476D1CB8F1000137
:10441000A8F10108F4DC5B462146179A0598ABE643
:104420002D0000002B000000200000002DE9F041CD
:10443000044600251E461746880404D405E0394684
:104440002020B0476D1C641EF9D52846BDE8F081D8
:104450002DE9F041044600251E469046C80301D5CB
:10446000302700E02027880404D505E0414638467F
:10447000B0476D1C641EF9D52846BDE8F08182B0B6
:10448000CDE9000121F0004001909DED000B02B04C
:1044900051EC100B7047000010B5044601E0FEF728
:1044A0000FFC14F8010B04490028F8D1BDE81040B6
:1044B0000A20FEF705BC00000000002000000000FC
:1044C0004C5555555555A53F7751C1166CC156BF32
:1044D0009015CB19A001FA3EAD529C804F7E92BE42
:1044E000C4B1B4BD9EEE213ED43888BEE9FAA8BD61
:1044F00000004054FB21F93F3163621A61B4D03DA2
:104500000000601A61B4D03D7370032E8A19A33B7A
:104510000000002E8A19A33BC14920259A837B39CC
:1045200000000000000000006E83F9A22915444E2F
:10453000D15727FCC0DD34F5999562DB4190433CAF
:10454000AB6351FE61C5BBDE3A6E24B7E0D24D428B
:10455000EA2E49061C92D1091CEB1DFE3EA729B18B
:10456000F53582E88444BB2E26709CE9417E5FB419
:1045700039D69139F43953838B5F849C3B28F9BD3C
:10458000FF97F81F0F9805DE8B112FEF1F6D0A5A4A
:10459000CF7E366DB709CB27663F464F2DEA5F9E2B
:1045A000C7BA27757BF1E5EBF739073DEA92528AE6
:1045B000B15FFB6B085D8D1F4630035600000000A5
:1045C000A6F810111111813FD561C119A0012ABFB0
:1045D0007DFEB157E31DC73EEB9C2B8AE6E55ABE34
:1045E0007CD5CF5A3AD9E53D00000000000000001C
:1045F0000102030406070809000000000102030489
:10460000204600080000002020000000A03B000819
:10461000404600082000002020050000B03B0008B4
:104620000000000000000000010000000700000082
:104630000024F40001000000100000000000000051
:040000050800018965
:00000001FF
